{
  "transactions": [
    {
      "hash": "0x8ae6a6430c6f9bc650ba0d171e15438daeff1253547b29bd75129b58e4fb3032",
      "transactionType": "CALL",
      "contractName": null,
      "contractAddress": "0xb04b25703988001838d0316bc2c56938c8e6ea56",
      "function": null,
      "arguments": null,
      "transaction": {
        "from": "0x328735d26e5ada93610f0006c32abe2278c46211",
        "to": "0xb04b25703988001838d0316bc2c56938c8e6ea56",
        "gas": "0x7ff0",
        "value": "0x2c68af0bb140000",
        "input": "0x",
        "nonce": "0xb4",
        "chainId": "0xaa36a7"
      },
      "additionalContracts": [],
      "isFixedGasLimit": false
    },
    {
      "hash": "0x0093e7dd5cbfba94853f0b8ce1b8bba94749ec22e7419e02674e58fba69aba9d",
      "transactionType": "CALL",
      "contractName": null,
      "contractAddress": "0xff88f0002fed8793e99b49c232f3e0103c1861a4",
      "function": null,
      "arguments": null,
      "transaction": {
        "from": "0x328735d26e5ada93610f0006c32abe2278c46211",
        "to": "0xff88f0002fed8793e99b49c232f3e0103c1861a4",
        "gas": "0x8338",
        "value": "0x2c68af0bb140000",
        "input": "0x",
        "nonce": "0xb5",
        "chainId": "0xaa36a7"
      },
      "additionalContracts": [],
      "isFixedGasLimit": false
    },
    {
      "hash": "0x2af50c254fab75eda05452e91507ab466958d7612bb94d321a6ff7d3a056d277",
      "transactionType": "CALL",
      "contractName": null,
      "contractAddress": "0x019ff7e90b85f20148825ea40cbfcb0bec6cc2bb",
      "function": "createPlayer(uint256)",
      "arguments": [
        "1"
      ],
      "transaction": {
        "from": "0x328735d26e5ada93610f0006c32abe2278c46211",
        "to": "0x019ff7e90b85f20148825ea40cbfcb0bec6cc2bb",
        "gas": "0x5f11a",
        "value": "0x0",
        "input": "0xdbfb6b540000000000000000000000000000000000000000000000000000000000000001",
        "nonce": "0xb6",
        "chainId": "0xaa36a7"
      },
      "additionalContracts": [
        {
          "transactionType": "CREATE2",
          "address": "0x3eea8fd05b75930f9c4fba45fb4b461df4116060",
          "initCode": "0x3d60ad80600a3d3981f3363d3d373d3d3d363d73233e0f58d33a69d801d6d6e885231d5eeb332eab5af43d82803e903d91602b57fd5bf37ceda500000000000000000000000000000000000000000000000000000000000000000000000000000000000000000000000000000000000000000000000000000000000000000000000000019ff7e90b85f20148825ea40cbfcb0bec6cc2bb0000000000000000000000000000000000000000000000000000000000000001"
        }
      ],
      "isFixedGasLimit": false
    },
    {
      "hash": "0x52a1648d8a602441f2d22cbfc793bcf8619d5b215e776bf6421669844792c815",
      "transactionType": "CALL",
      "contractName": null,
      "contractAddress": "0xb04b25703988001838d0316bc2c56938c8e6ea56",
      "function": "execute(address,uint256,bytes,uint8)",
      "arguments": [
        "0xfF88f0002FED8793E99b49c232F3E0103C1861A4",
        "1000000000000100",
        "0xe5c291d40000000000000000000000000000000000000000000000000000000000000005",
        "0"
      ],
      "transaction": {
        "from": "0x328735d26e5ada93610f0006c32abe2278c46211",
        "to": "0xb04b25703988001838d0316bc2c56938c8e6ea56",
        "gas": "0x681da",
        "value": "0x0",
        "input": "0x51945447000000000000000000000000ff88f0002fed8793e99b49c232f3e0103c1861a400000000000000000000000000000000000000000000000000038d7ea4c68064000000000000000000000000000000000000000000000000000000000000008000000000000000000000000000000000000000000000000000000000000000000000000000000000000000000000000000000000000000000000000000000024e5c291d4000000000000000000000000000000000000000000000000000000000000000500000000000000000000000000000000000000000000000000000000",
        "nonce": "0xb7",
        "chainId": "0xaa36a7"
      },
      "additionalContracts": [],
      "isFixedGasLimit": false
    }
  ],
  "receipts": [
    {
      "status": "0x1",
      "cumulativeGasUsed": "0x5ef796",
      "logs": [],
      "logsBloom": "0x00000000000000000000000000000000000000000000000000000000000000000000000000000000000000000000000000000000000000000000000000000000000000000000000000000000000000000000000000000000000000000000000000000000000000000000000000000000000000000000000000000000000000000000000000000000000000000000000000000000000000000000000000000000000000000000000000000000000000000000000000000000000000000000000000000000000000000000000000000000000000000000000000000000000000000000000000000000000000000000000000000000000000000000000000000000",
      "type": "0x2",
      "transactionHash": "0x8ae6a6430c6f9bc650ba0d171e15438daeff1253547b29bd75129b58e4fb3032",
      "transactionIndex": "0x34",
      "blockHash": "0x27a9656b72dba92deb4cca197e7b56db7cb73a307d4832caf5fe60c9f6a4b97d",
      "blockNumber": "0x658e82",
      "gasUsed": "0x5ca0",
      "effectiveGasPrice": "0x2153b171e",
      "from": "0x328735d26e5ada93610f0006c32abe2278c46211",
      "to": "0xb04b25703988001838d0316bc2c56938c8e6ea56",
      "contractAddress": null
    },
    {
      "status": "0x1",
      "cumulativeGasUsed": "0x5f514f",
      "logs": [
        {
          "address": "0xff88f0002fed8793e99b49c232f3e0103c1861a4",
          "topics": [
            "0xdd970dd9b5bfe707922155b058a407655cb18288b807e2216442bca8ad83d6b5"
          ],
          "data": "0x000000000000000000000000000000000000000000000000000000000000004000000000000000000000000000000000000000000000000000000000000030f400000000000000000000000000000000000000000000000000000000000000077265636569766500000000000000000000000000000000000000000000000000",
          "blockHash": "0x27a9656b72dba92deb4cca197e7b56db7cb73a307d4832caf5fe60c9f6a4b97d",
          "blockNumber": "0x658e82",
          "transactionHash": "0x0093e7dd5cbfba94853f0b8ce1b8bba94749ec22e7419e02674e58fba69aba9d",
          "transactionIndex": "0x35",
          "logIndex": "0x31",
          "removed": false
        }
      ],
      "logsBloom": "0x00000000000000000000000000000000000000000000000000000000000000000000000000000000000000000000000000000040000000000000000000000000000000000000000000000000000000000000000000000000000000000000000000000000000000000000000000000000000000000000000000000000000000000000000000000000000000200000000000000000000000000000000000000000000000000000000000000000000000000000000000000000000000400020000000000000000000000000000000000000000000000020000040000000000000000000000000000000000000000000000000000000000000000000000000000000",
      "type": "0x2",
      "transactionHash": "0x0093e7dd5cbfba94853f0b8ce1b8bba94749ec22e7419e02674e58fba69aba9d",
      "transactionIndex": "0x35",
      "blockHash": "0x27a9656b72dba92deb4cca197e7b56db7cb73a307d4832caf5fe60c9f6a4b97d",
      "blockNumber": "0x658e82",
      "gasUsed": "0x59b9",
      "effectiveGasPrice": "0x2153b171e",
      "from": "0x328735d26e5ada93610f0006c32abe2278c46211",
      "to": "0xff88f0002fed8793e99b49c232f3e0103c1861a4",
      "contractAddress": null
    },
    {
      "status": "0x1",
      "cumulativeGasUsed": "0x68b14d",
      "logs": [
        {
          "address": "0x019ff7e90b85f20148825ea40cbfcb0bec6cc2bb",
          "topics": [
            "0xddf252ad1be2c89b69c2b068fc378daa952ba7f163c4a11628f55a4df523b3ef",
            "0x0000000000000000000000000000000000000000000000000000000000000000",
            "0x000000000000000000000000328735d26e5ada93610f0006c32abe2278c46211",
            "0x0000000000000000000000000000000000000000000000000000000000000001"
          ],
          "data": "0x",
          "blockHash": "0x27a9656b72dba92deb4cca197e7b56db7cb73a307d4832caf5fe60c9f6a4b97d",
          "blockNumber": "0x658e82",
          "transactionHash": "0x2af50c254fab75eda05452e91507ab466958d7612bb94d321a6ff7d3a056d277",
          "transactionIndex": "0x3a",
          "logIndex": "0x34",
          "removed": false
        },
        {
          "address": "0x019ff7e90b85f20148825ea40cbfcb0bec6cc2bb",
          "topics": [
            "0xf8e1a15aba9398e019f0b49df1a4fde98ee17ae345cb5f6b5e2c27f5033e8ce7"
          ],
          "data": "0x0000000000000000000000000000000000000000000000000000000000000001",
          "blockHash": "0x27a9656b72dba92deb4cca197e7b56db7cb73a307d4832caf5fe60c9f6a4b97d",
          "blockNumber": "0x658e82",
          "transactionHash": "0x2af50c254fab75eda05452e91507ab466958d7612bb94d321a6ff7d3a056d277",
          "transactionIndex": "0x3a",
          "logIndex": "0x35",
          "removed": false
        },
        {
          "address": "0x000000006551c19487814612e58fe06813775758",
          "topics": [
            "0x79f19b3655ee38b1ce526556b7731a20c8f218fbda4a3990b6cc4172fdf88722",
            "0x000000000000000000000000233e0f58d33a69d801d6d6e885231d5eeb332eab",
            "0x000000000000000000000000019ff7e90b85f20148825ea40cbfcb0bec6cc2bb",
            "0x0000000000000000000000000000000000000000000000000000000000000001"
          ],
          "data": "0x0000000000000000000000003eea8fd05b75930f9c4fba45fb4b461df41160607ceda500000000000000000000000000000000000000000000000000000000000000000000000000000000000000000000000000000000000000000000000000",
          "blockHash": "0x27a9656b72dba92deb4cca197e7b56db7cb73a307d4832caf5fe60c9f6a4b97d",
          "blockNumber": "0x658e82",
          "transactionHash": "0x2af50c254fab75eda05452e91507ab466958d7612bb94d321a6ff7d3a056d277",
          "transactionIndex": "0x3a",
          "logIndex": "0x36",
          "removed": false
        },
        {
          "address": "0x019ff7e90b85f20148825ea40cbfcb0bec6cc2bb",
          "topics": [
            "0xc12b9f2469deda9503b4a07ba219659e019402462444977aabe4aaa86758e2ad",
            "0x0000000000000000000000000000000000000000000000000000000000000001",
            "0x0000000000000000000000003eea8fd05b75930f9c4fba45fb4b461df4116060"
          ],
          "data": "0x",
          "blockHash": "0x27a9656b72dba92deb4cca197e7b56db7cb73a307d4832caf5fe60c9f6a4b97d",
          "blockNumber": "0x658e82",
          "transactionHash": "0x2af50c254fab75eda05452e91507ab466958d7612bb94d321a6ff7d3a056d277",
          "transactionIndex": "0x3a",
          "logIndex": "0x37",
          "removed": false
        }
      ],
      "logsBloom": "0x00010000000000000000000000000004000000080000000400000004000000000000000000040000004000000000000000000000000000040000000000040000000000000000000000000028000000000000004400040000000008000000000000000000020000000000000000000800000000000000000000000010000000000000000000002000000000000000000000000000000000000000000100000000080000000000000000080000002000002000000000020000000000000000008000000002000000000000000000008004000000000000000100000000000060000000000000000000200000000000000000010000020000000000000000000100",
      "type": "0x2",
      "transactionHash": "0x2af50c254fab75eda05452e91507ab466958d7612bb94d321a6ff7d3a056d277",
      "transactionIndex": "0x3a",
      "blockHash": "0x27a9656b72dba92deb4cca197e7b56db7cb73a307d4832caf5fe60c9f6a4b97d",
      "blockNumber": "0x658e82",
      "gasUsed": "0x44d4c",
      "effectiveGasPrice": "0x2153b171e",
      "from": "0x328735d26e5ada93610f0006c32abe2278c46211",
      "to": "0x019ff7e90b85f20148825ea40cbfcb0bec6cc2bb",
      "contractAddress": null
    },
    {
      "status": "0x1",
      "cumulativeGasUsed": "0x6dcf42",
      "logs": [
        {
          "address": "0x9ddfaca8183c41ad55329bdeed9f6a8d53168b1b",
          "topics": [
            "0xeb0e3652e0f44f417695e6e90f2f42c99b65cd7169074c5a654b16b9748c3a4e",
            "0x787d74caea10b2b357790d5b5247c2f63d1d91572a9846f780606e4d953677ae",
            "0x00206066889ca03553a403e0292a6a948258e5f1261845a396f0fed7539e6755",
            "0x000000000000000000000000195f15f2d49d693ce265b4fb0fddbe15b1850cc1"
          ],
          "data": "0x5b7b3dde63dd1c4618f7e1baa54129d642debaec53bbf1d98014e4410f46f973251ad657502583d95a00bcaff16da6ce1a58b8c9d195cd39292ae5e257f04ce60000000000000000000000000000000000000000000000000000000000000003000000000000000000000000000000000000000000000000000000000007f479000000000000000000000000000000000000000000000000000000000000000500000000000000000000000000000000000000000000000000000000000000c0000000000000000000000000000000000000000000000000000000000000002492fd1338000000000000000000000000000000000000000000000000000000000000000100000000000000000000000000000000000000000000000000000000",
          "blockHash": "0x27a9656b72dba92deb4cca197e7b56db7cb73a307d4832caf5fe60c9f6a4b97d",
          "blockNumber": "0x658e82",
          "transactionHash": "0x52a1648d8a602441f2d22cbfc793bcf8619d5b215e776bf6421669844792c815",
          "transactionIndex": "0x3b",
          "logIndex": "0x38",
          "removed": false
        },
        {
          "address": "0xff88f0002fed8793e99b49c232f3e0103c1861a4",
          "topics": [
            "0xcc58b13ad3eab50626c6a6300b1d139cd6ebb1688a7cced9461c2f7e762665ee"
          ],
          "data": "0x5b7b3dde63dd1c4618f7e1baa54129d642debaec53bbf1d98014e4410f46f9730000000000000000000000000000000000000000000000000000000000000005",
          "blockHash": "0x27a9656b72dba92deb4cca197e7b56db7cb73a307d4832caf5fe60c9f6a4b97d",
          "blockNumber": "0x658e82",
          "transactionHash": "0x52a1648d8a602441f2d22cbfc793bcf8619d5b215e776bf6421669844792c815",
          "transactionIndex": "0x3b",
          "logIndex": "0x39",
          "removed": false
        }
      ],
      "logsBloom": "0x0000000000000000000000000000000000000000002000000000000000010000000000000000000000000000000000000000000000000000000000000000000010200000000000000000000000000000000000000000000000200200000000000800000000000000000000000000000000000000000000000000000000000000000800000000000000000001000000000000000004000000000000000000000000000000000000000000000800000000000000000000000000000040002000000000000000000000000000020000c000000000000020000000000080000000000800000000000000000000000000000000000000000000004000000000000000",
      "type": "0x2",
      "transactionHash": "0x52a1648d8a602441f2d22cbfc793bcf8619d5b215e776bf6421669844792c815",
      "transactionIndex": "0x3b",
      "blockHash": "0x27a9656b72dba92deb4cca197e7b56db7cb73a307d4832caf5fe60c9f6a4b97d",
      "blockNumber": "0x658e82",
      "gasUsed": "0x51df5",
      "effectiveGasPrice": "0x2153b171e",
      "from": "0x328735d26e5ada93610f0006c32abe2278c46211",
      "to": "0xb04b25703988001838d0316bc2c56938c8e6ea56",
      "contractAddress": null
    }
  ],
  "libraries": [],
  "pending": [],
  "returns": {},
  "timestamp": 1725805445,
  "chain": 11155111,
  "commit": "06f3cec"
}