{
  "transactions": [
    {
      "hash": "0x530928989346bb15caa5288ba2dcecb1cd351b20401a87a9e63b556ea386f11e",
      "transactionType": "CALL",
      "contractName": null,
      "contractAddress": "0xb7df35b05401e6d338832247c752dc298648cc99",
      "function": "createPlayer(uint256)",
      "arguments": [
        "1"
      ],
      "transaction": {
        "from": "0x328735d26e5ada93610f0006c32abe2278c46211",
        "to": "0xb7df35b05401e6d338832247c752dc298648cc99",
        "gas": "0x63e40",
        "value": "0x0",
        "input": "0xdbfb6b540000000000000000000000000000000000000000000000000000000000000001",
        "nonce": "0xc6",
        "chainId": "0xaa36a7"
      },
      "additionalContracts": [
        {
          "transactionType": "CREATE2",
          "address": "0xca23ff47f4a8bd32a70ad96548e341ef744054f8",
          "initCode": "0x3d60ad80600a3d3981f3363d3d373d3d3d363d738d59b934beb304464e80c2f18693d5cf9df627f65af43d82803e903d91602b57fd5bf37ceda500000000000000000000000000000000000000000000000000000000000000000000000000000000000000000000000000000000000000000000000000000000000000000000000000b7df35b05401e6d338832247c752dc298648cc990000000000000000000000000000000000000000000000000000000000000000"
        }
      ],
      "isFixedGasLimit": false
    }
  ],
  "receipts": [
    {
      "status": "0x1",
      "cumulativeGasUsed": "0x104d64a",
      "logs": [
        {
          "address": "0xb7df35b05401e6d338832247c752dc298648cc99",
          "topics": [
            "0xddf252ad1be2c89b69c2b068fc378daa952ba7f163c4a11628f55a4df523b3ef",
            "0x0000000000000000000000000000000000000000000000000000000000000000",
            "0x000000000000000000000000328735d26e5ada93610f0006c32abe2278c46211",
            "0x0000000000000000000000000000000000000000000000000000000000000000"
          ],
          "data": "0x",
          "blockHash": "0xeb1ae54ade35ee4f543cd179f19c3d073cc463ed07d2aaa465f4dfc20bed6597",
          "blockNumber": "0x658f33",
          "transactionHash": "0x530928989346bb15caa5288ba2dcecb1cd351b20401a87a9e63b556ea386f11e",
          "transactionIndex": "0xb6",
          "logIndex": "0xe0",
          "removed": false
        },
        {
          "address": "0xb7df35b05401e6d338832247c752dc298648cc99",
          "topics": [
            "0xf8e1a15aba9398e019f0b49df1a4fde98ee17ae345cb5f6b5e2c27f5033e8ce7"
          ],
          "data": "0x0000000000000000000000000000000000000000000000000000000000000000",
          "blockHash": "0xeb1ae54ade35ee4f543cd179f19c3d073cc463ed07d2aaa465f4dfc20bed6597",
          "blockNumber": "0x658f33",
          "transactionHash": "0x530928989346bb15caa5288ba2dcecb1cd351b20401a87a9e63b556ea386f11e",
          "transactionIndex": "0xb6",
          "logIndex": "0xe1",
          "removed": false
        },
        {
          "address": "0x000000006551c19487814612e58fe06813775758",
          "topics": [
            "0x79f19b3655ee38b1ce526556b7731a20c8f218fbda4a3990b6cc4172fdf88722",
            "0x0000000000000000000000008d59b934beb304464e80c2f18693d5cf9df627f6",
            "0x000000000000000000000000b7df35b05401e6d338832247c752dc298648cc99",
            "0x0000000000000000000000000000000000000000000000000000000000000000"
          ],
          "data": "0x000000000000000000000000ca23ff47f4a8bd32a70ad96548e341ef744054f87ceda500000000000000000000000000000000000000000000000000000000000000000000000000000000000000000000000000000000000000000000000000",
          "blockHash": "0xeb1ae54ade35ee4f543cd179f19c3d073cc463ed07d2aaa465f4dfc20bed6597",
          "blockNumber": "0x658f33",
          "transactionHash": "0x530928989346bb15caa5288ba2dcecb1cd351b20401a87a9e63b556ea386f11e",
          "transactionIndex": "0xb6",
          "logIndex": "0xe2",
          "removed": false
        },
        {
          "address": "0xb7df35b05401e6d338832247c752dc298648cc99",
          "topics": [
            "0xc12b9f2469deda9503b4a07ba219659e019402462444977aabe4aaa86758e2ad",
            "0x0000000000000000000000000000000000000000000000000000000000000000",
            "0x000000000000000000000000ca23ff47f4a8bd32a70ad96548e341ef744054f8"
          ],
          "data": "0x",
          "blockHash": "0xeb1ae54ade35ee4f543cd179f19c3d073cc463ed07d2aaa465f4dfc20bed6597",
          "blockNumber": "0x658f33",
          "transactionHash": "0x530928989346bb15caa5288ba2dcecb1cd351b20401a87a9e63b556ea386f11e",
          "transactionIndex": "0xb6",
          "logIndex": "0xe3",
          "removed": false
        }
      ],
      "logsBloom": "0x00010000000000000000000000000204100000000000000000000004000000000000000000020000000000400000000000000000000000000000000000000000000000100000000000000008000000000000000000000000000000000004000000001000020004000000000000000800000000000000000000000010000000000000000000002000000000000000000000000000000000000000000000000000004000000400000000080000002000002000000000020000000000000000008000000402000000000000000000008004000000000000000100000000000020080000000000000000200000000000000000010000000000000000000000000100",
      "type": "0x2",
      "transactionHash": "0x530928989346bb15caa5288ba2dcecb1cd351b20401a87a9e63b556ea386f11e",
      "transactionIndex": "0xb6",
      "blockHash": "0xeb1ae54ade35ee4f543cd179f19c3d073cc463ed07d2aaa465f4dfc20bed6597",
      "blockNumber": "0x658f33",
      "gasUsed": "0x48528",
      "effectiveGasPrice": "0x1c002dac6",
      "from": "0x328735d26e5ada93610f0006c32abe2278c46211",
      "to": "0xb7df35b05401e6d338832247c752dc298648cc99",
      "contractAddress": null
    }
  ],
  "libraries": [],
  "pending": [],
  "returns": {},
  "timestamp": 1725808021,
  "chain": 11155111,
  "commit": "1e2f7a9"
}